{
  "contractName": "Car",
  "abi": [
    {
      "inputs": [],
      "stateMutability": "nonpayable",
      "type": "constructor"
    },
    {
      "anonymous": false,
      "inputs": [
        {
          "indexed": true,
          "internalType": "address",
          "name": "owner",
          "type": "address"
        },
        {
          "indexed": true,
          "internalType": "address",
          "name": "approved",
          "type": "address"
        },
        {
          "indexed": true,
          "internalType": "uint256",
          "name": "tokenId",
          "type": "uint256"
        }
      ],
      "name": "Approval",
      "type": "event"
    },
    {
      "anonymous": false,
      "inputs": [
        {
          "indexed": true,
          "internalType": "address",
          "name": "owner",
          "type": "address"
        },
        {
          "indexed": true,
          "internalType": "address",
          "name": "operator",
          "type": "address"
        },
        {
          "indexed": false,
          "internalType": "bool",
          "name": "approved",
          "type": "bool"
        }
      ],
      "name": "ApprovalForAll",
      "type": "event"
    },
    {
      "anonymous": false,
      "inputs": [
        {
          "indexed": true,
          "internalType": "address",
          "name": "from",
          "type": "address"
        },
        {
          "indexed": true,
          "internalType": "address",
          "name": "to",
          "type": "address"
        },
        {
          "indexed": true,
          "internalType": "uint256",
          "name": "tokenId",
          "type": "uint256"
        }
      ],
      "name": "Transfer",
      "type": "event"
    },
    {
      "inputs": [
        {
          "internalType": "address",
          "name": "to",
          "type": "address"
        },
        {
          "internalType": "uint256",
          "name": "tokenId",
          "type": "uint256"
        }
      ],
      "name": "approve",
      "outputs": [],
      "stateMutability": "nonpayable",
      "type": "function"
    },
    {
      "inputs": [
        {
          "internalType": "address",
          "name": "owner",
          "type": "address"
        }
      ],
      "name": "balanceOf",
      "outputs": [
        {
          "internalType": "uint256",
          "name": "",
          "type": "uint256"
        }
      ],
      "stateMutability": "view",
      "type": "function",
      "constant": true
    },
    {
      "inputs": [
        {
          "internalType": "uint256",
          "name": "tokenId",
          "type": "uint256"
        }
      ],
      "name": "getApproved",
      "outputs": [
        {
          "internalType": "address",
          "name": "",
          "type": "address"
        }
      ],
      "stateMutability": "view",
      "type": "function",
      "constant": true
    },
    {
      "inputs": [
        {
          "internalType": "address",
          "name": "owner",
          "type": "address"
        },
        {
          "internalType": "address",
          "name": "operator",
          "type": "address"
        }
      ],
      "name": "isApprovedForAll",
      "outputs": [
        {
          "internalType": "bool",
          "name": "",
          "type": "bool"
        }
      ],
      "stateMutability": "view",
      "type": "function",
      "constant": true
    },
    {
      "inputs": [],
      "name": "name",
      "outputs": [
        {
          "internalType": "string",
          "name": "",
          "type": "string"
        }
      ],
      "stateMutability": "view",
      "type": "function",
      "constant": true
    },
    {
      "inputs": [
        {
          "internalType": "uint256",
          "name": "tokenId",
          "type": "uint256"
        }
      ],
      "name": "ownerOf",
      "outputs": [
        {
          "internalType": "address",
          "name": "",
          "type": "address"
        }
      ],
      "stateMutability": "view",
      "type": "function",
      "constant": true
    },
    {
      "inputs": [
        {
          "internalType": "address",
          "name": "from",
          "type": "address"
        },
        {
          "internalType": "address",
          "name": "to",
          "type": "address"
        },
        {
          "internalType": "uint256",
          "name": "tokenId",
          "type": "uint256"
        }
      ],
      "name": "safeTransferFrom",
      "outputs": [],
      "stateMutability": "nonpayable",
      "type": "function"
    },
    {
      "inputs": [
        {
          "internalType": "address",
          "name": "from",
          "type": "address"
        },
        {
          "internalType": "address",
          "name": "to",
          "type": "address"
        },
        {
          "internalType": "uint256",
          "name": "tokenId",
          "type": "uint256"
        },
        {
          "internalType": "bytes",
          "name": "data",
          "type": "bytes"
        }
      ],
      "name": "safeTransferFrom",
      "outputs": [],
      "stateMutability": "nonpayable",
      "type": "function"
    },
    {
      "inputs": [
        {
          "internalType": "address",
          "name": "operator",
          "type": "address"
        },
        {
          "internalType": "bool",
          "name": "approved",
          "type": "bool"
        }
      ],
      "name": "setApprovalForAll",
      "outputs": [],
      "stateMutability": "nonpayable",
      "type": "function"
    },
    {
      "inputs": [
        {
          "internalType": "bytes4",
          "name": "interfaceId",
          "type": "bytes4"
        }
      ],
      "name": "supportsInterface",
      "outputs": [
        {
          "internalType": "bool",
          "name": "",
          "type": "bool"
        }
      ],
      "stateMutability": "view",
      "type": "function",
      "constant": true
    },
    {
      "inputs": [],
      "name": "symbol",
      "outputs": [
        {
          "internalType": "string",
          "name": "",
          "type": "string"
        }
      ],
      "stateMutability": "view",
      "type": "function",
      "constant": true
    },
    {
      "inputs": [
        {
          "internalType": "uint256",
          "name": "tokenId",
          "type": "uint256"
        }
      ],
      "name": "tokenURI",
      "outputs": [
        {
          "internalType": "string",
          "name": "",
          "type": "string"
        }
      ],
      "stateMutability": "view",
      "type": "function",
      "constant": true
    },
    {
      "inputs": [
        {
          "internalType": "address",
          "name": "from",
          "type": "address"
        },
        {
          "internalType": "address",
          "name": "to",
          "type": "address"
        },
        {
          "internalType": "uint256",
          "name": "tokenId",
          "type": "uint256"
        }
      ],
      "name": "transferFrom",
      "outputs": [],
      "stateMutability": "nonpayable",
      "type": "function"
    },
    {
      "inputs": [
        {
          "internalType": "string",
          "name": "name",
          "type": "string"
        },
        {
          "internalType": "uint256",
          "name": "price",
          "type": "uint256"
        },
        {
          "internalType": "string",
          "name": "description",
          "type": "string"
        },
        {
          "internalType": "string",
          "name": "image",
          "type": "string"
        }
      ],
      "name": "addCar",
      "outputs": [
        {
          "internalType": "uint256",
          "name": "",
          "type": "uint256"
        }
      ],
      "stateMutability": "nonpayable",
      "type": "function"
    },
    {
      "inputs": [
        {
          "internalType": "uint256",
          "name": "carId",
          "type": "uint256"
        }
      ],
      "name": "sellMyCar",
      "outputs": [],
      "stateMutability": "nonpayable",
      "type": "function"
    },
    {
      "inputs": [
        {
          "internalType": "uint256",
          "name": "carId",
          "type": "uint256"
        }
      ],
      "name": "buyCar",
      "outputs": [
        {
          "internalType": "bool",
          "name": "",
          "type": "bool"
        }
      ],
      "stateMutability": "payable",
      "type": "function",
      "payable": true
    },
    {
      "inputs": [
        {
          "internalType": "uint256",
          "name": "carId",
          "type": "uint256"
        }
      ],
      "name": "cancel",
      "outputs": [],
      "stateMutability": "nonpayable",
      "type": "function"
    },
    {
      "inputs": [],
      "name": "getCarsList",
      "outputs": [
        {
          "components": [
            {
              "internalType": "address payable",
              "name": "owner",
              "type": "address"
            },
            {
              "internalType": "uint256",
              "name": "carId",
              "type": "uint256"
            },
            {
              "internalType": "string",
              "name": "name",
              "type": "string"
            },
            {
              "internalType": "uint256",
              "name": "price",
              "type": "uint256"
            },
            {
              "internalType": "string",
              "name": "description",
              "type": "string"
            },
            {
              "internalType": "string",
              "name": "image",
              "type": "string"
            },
            {
              "internalType": "bool",
              "name": "used",
              "type": "bool"
            }
          ],
          "internalType": "struct Car.CarInfo[]",
          "name": "",
          "type": "tuple[]"
        }
      ],
      "stateMutability": "view",
      "type": "function",
      "constant": true
    },
    {
      "inputs": [],
      "name": "getNoBuyCarsList",
      "outputs": [
        {
          "components": [
            {
              "internalType": "address payable",
              "name": "owner",
              "type": "address"
            },
            {
              "internalType": "uint256",
              "name": "carId",
              "type": "uint256"
            },
            {
              "internalType": "string",
              "name": "name",
              "type": "string"
            },
            {
              "internalType": "uint256",
              "name": "price",
              "type": "uint256"
            },
            {
              "internalType": "string",
              "name": "description",
              "type": "string"
            },
            {
              "internalType": "string",
              "name": "image",
              "type": "string"
            },
            {
              "internalType": "bool",
              "name": "used",
              "type": "bool"
            }
          ],
          "internalType": "struct Car.CarInfo[]",
          "name": "",
          "type": "tuple[]"
        }
      ],
      "stateMutability": "view",
      "type": "function",
      "constant": true
    },
    {
      "inputs": [],
      "name": "getCarsListByOwner",
      "outputs": [
        {
          "components": [
            {
              "internalType": "address payable",
              "name": "owner",
              "type": "address"
            },
            {
              "internalType": "uint256",
              "name": "carId",
              "type": "uint256"
            },
            {
              "internalType": "string",
              "name": "name",
              "type": "string"
            },
            {
              "internalType": "uint256",
              "name": "price",
              "type": "uint256"
            },
            {
              "internalType": "string",
              "name": "description",
              "type": "string"
            },
            {
              "internalType": "string",
              "name": "image",
              "type": "string"
            },
            {
              "internalType": "bool",
              "name": "used",
              "type": "bool"
            }
          ],
          "internalType": "struct Car.CarInfo[]",
          "name": "",
          "type": "tuple[]"
        }
      ],
      "stateMutability": "view",
      "type": "function",
      "constant": true
    },
    {
      "inputs": [
        {
          "internalType": "uint256",
          "name": "carId",
          "type": "uint256"
        }
      ],
      "name": "getACarById",
      "outputs": [
        {
          "components": [
            {
              "internalType": "address payable",
              "name": "owner",
              "type": "address"
            },
            {
              "internalType": "uint256",
              "name": "carId",
              "type": "uint256"
            },
            {
              "internalType": "string",
              "name": "name",
              "type": "string"
            },
            {
              "internalType": "uint256",
              "name": "price",
              "type": "uint256"
            },
            {
              "internalType": "string",
              "name": "description",
              "type": "string"
            },
            {
              "internalType": "string",
              "name": "image",
              "type": "string"
            },
            {
              "internalType": "bool",
              "name": "used",
              "type": "bool"
            }
          ],
          "internalType": "struct Car.CarInfo",
          "name": "",
          "type": "tuple"
        }
      ],
      "stateMutability": "view",
      "type": "function",
      "constant": true
    }
  ],
  "bytecode": "0x60806040523480156200001157600080fd5b506040518060400160405280600381526020017f43617200000000000000000000000000000000000000000000000000000000008152506040518060400160405280600381526020017f434152000000000000000000000000000000000000000000000000000000000081525081600090816200008f919062000324565b508060019081620000a1919062000324565b5050506200040b565b600081519050919050565b7f4e487b7100000000000000000000000000000000000000000000000000000000600052604160045260246000fd5b7f4e487b7100000000000000000000000000000000000000000000000000000000600052602260045260246000fd5b600060028204905060018216806200012c57607f821691505b602082108103620001425762000141620000e4565b5b50919050565b60008190508160005260206000209050919050565b60006020601f8301049050919050565b600082821b905092915050565b600060088302620001ac7fffffffffffffffffffffffffffffffffffffffffffffffffffffffffffffffff826200016d565b620001b886836200016d565b95508019841693508086168417925050509392505050565b6000819050919050565b6000819050919050565b600062000205620001ff620001f984620001d0565b620001da565b620001d0565b9050919050565b6000819050919050565b6200022183620001e4565b6200023962000230826200020c565b8484546200017a565b825550505050565b600090565b6200025062000241565b6200025d81848462000216565b505050565b5b8181101562000285576200027960008262000246565b60018101905062000263565b5050565b601f821115620002d4576200029e8162000148565b620002a9846200015d565b81016020851015620002b9578190505b620002d1620002c8856200015d565b83018262000262565b50505b505050565b600082821c905092915050565b6000620002f960001984600802620002d9565b1980831691505092915050565b6000620003148383620002e6565b9150826002028217905092915050565b6200032f82620000aa565b67ffffffffffffffff8111156200034b576200034a620000b5565b5b62000357825462000113565b6200036482828562000289565b600060209050601f8311600181146200039c576000841562000387578287015190505b62000393858262000306565b86555062000403565b601f198416620003ac8662000148565b60005b82811015620003d657848901518255600182019150602085019450602081019050620003af565b86831015620003f65784890151620003f2601f891682620002e6565b8355505b6001600288020188555050505b505050505050565b614b33806200041b6000396000f3fe60806040526004361061012a5760003560e01c80634731ba02116100ab578063a22cb4651161006f578063a22cb4651461041d578063a37cbfe914610446578063a6b05a721461046f578063b88d4fde1461049a578063c87b56dd146104c3578063e985e9c5146105005761012a565b80634731ba021461031d5780636352211e146103485780636c2310601461038557806370a08231146103b557806395d89b41146103f25761012a565b80630b7b1826116100f25780630b7b18261461023a57806323b872dd146102655780633cfcf9a91461028e57806340e58ee5146102cb57806342842e0e146102f45761012a565b806301ffc9a71461012f57806306458c051461016c57806306fdde03146101a9578063081812fc146101d4578063095ea7b314610211575b600080fd5b34801561013b57600080fd5b50610156600480360381019061015191906132d8565b61053d565b6040516101639190613320565b60405180910390f35b34801561017857600080fd5b50610193600480360381019061018e9190613371565b61061f565b6040516101a09190613537565b60405180910390f35b3480156101b557600080fd5b506101be610887565b6040516101cb91906135a3565b60405180910390f35b3480156101e057600080fd5b506101fb60048036038101906101f69190613371565b610919565b60405161020891906135e6565b60405180910390f35b34801561021d57600080fd5b506102386004803603810190610233919061362d565b61095f565b005b34801561024657600080fd5b5061024f610a76565b60405161025c91906137d9565b60405180910390f35b34801561027157600080fd5b5061028c600480360381019061028791906137fb565b610d7f565b005b34801561029a57600080fd5b506102b560048036038101906102b09190613983565b610ddf565b6040516102c29190613a4d565b60405180910390f35b3480156102d757600080fd5b506102f260048036038101906102ed9190613371565b6110a9565b005b34801561030057600080fd5b5061031b600480360381019061031691906137fb565b611284565b005b34801561032957600080fd5b506103326112a4565b60405161033f91906137d9565b60405180910390f35b34801561035457600080fd5b5061036f600480360381019061036a9190613371565b6115ad565b60405161037c91906135e6565b60405180910390f35b61039f600480360381019061039a9190613371565b611633565b6040516103ac9190613320565b60405180910390f35b3480156103c157600080fd5b506103dc60048036038101906103d79190613a68565b611a74565b6040516103e99190613a4d565b60405180910390f35b3480156103fe57600080fd5b50610407611b2b565b60405161041491906135a3565b60405180910390f35b34801561042957600080fd5b50610444600480360381019061043f9190613ac1565b611bbd565b005b34801561045257600080fd5b5061046d60048036038101906104689190613371565b611bd3565b005b34801561047b57600080fd5b50610484611fbe565b60405161049191906137d9565b60405180910390f35b3480156104a657600080fd5b506104c160048036038101906104bc9190613ba2565b612363565b005b3480156104cf57600080fd5b506104ea60048036038101906104e59190613371565b6123c5565b6040516104f791906135a3565b60405180910390f35b34801561050c57600080fd5b5061052760048036038101906105229190613c25565b61242d565b6040516105349190613320565b60405180910390f35b60007f80ac58cd000000000000000000000000000000000000000000000000000000007bffffffffffffffffffffffffffffffffffffffffffffffffffffffff1916827bffffffffffffffffffffffffffffffffffffffffffffffffffffffff1916148061060857507f5b5e139f000000000000000000000000000000000000000000000000000000007bffffffffffffffffffffffffffffffffffffffffffffffffffffffff1916827bffffffffffffffffffffffffffffffffffffffffffffffffffffffff1916145b806106185750610617826124c1565b5b9050919050565b610627613199565b600860008381526020019081526020016000206040518060e00160405290816000820160009054906101000a900473ffffffffffffffffffffffffffffffffffffffff1673ffffffffffffffffffffffffffffffffffffffff1673ffffffffffffffffffffffffffffffffffffffff168152602001600182015481526020016002820180546106b590613c94565b80601f01602080910402602001604051908101604052809291908181526020018280546106e190613c94565b801561072e5780601f106107035761010080835404028352916020019161072e565b820191906000526020600020905b81548152906001019060200180831161071157829003601f168201915b505050505081526020016003820154815260200160048201805461075190613c94565b80601f016020809104026020016040519081016040528092919081815260200182805461077d90613c94565b80156107ca5780601f1061079f576101008083540402835291602001916107ca565b820191906000526020600020905b8154815290600101906020018083116107ad57829003601f168201915b505050505081526020016005820180546107e390613c94565b80601f016020809104026020016040519081016040528092919081815260200182805461080f90613c94565b801561085c5780601f106108315761010080835404028352916020019161085c565b820191906000526020600020905b81548152906001019060200180831161083f57829003601f168201915b505050505081526020016006820160009054906101000a900460ff1615151515815250509050919050565b60606000805461089690613c94565b80601f01602080910402602001604051908101604052809291908181526020018280546108c290613c94565b801561090f5780601f106108e45761010080835404028352916020019161090f565b820191906000526020600020905b8154815290600101906020018083116108f257829003601f168201915b5050505050905090565b60006109248261252b565b6004600083815260200190815260200160002060009054906101000a900473ffffffffffffffffffffffffffffffffffffffff169050919050565b600061096a826115ad565b90508073ffffffffffffffffffffffffffffffffffffffff168373ffffffffffffffffffffffffffffffffffffffff16036109da576040517f08c379a00000000000000000000000000000000000000000000000000000000081526004016109d190613d37565b60405180910390fd5b8073ffffffffffffffffffffffffffffffffffffffff166109f9612576565b73ffffffffffffffffffffffffffffffffffffffff161480610a285750610a2781610a22612576565b61242d565b5b610a67576040517f08c379a0000000000000000000000000000000000000000000000000000000008152600401610a5e90613dc9565b60405180910390fd5b610a71838361257e565b505050565b60606000610a846007612637565b67ffffffffffffffff811115610a9d57610a9c613858565b5b604051908082528060200260200182016040528015610ad657816020015b610ac3613199565b815260200190600190039081610abb5790505b50905060005b610ae66007612637565b811015610d7757600a60008281526020019081526020016000206040518060e00160405290816000820160009054906101000a900473ffffffffffffffffffffffffffffffffffffffff1673ffffffffffffffffffffffffffffffffffffffff1673ffffffffffffffffffffffffffffffffffffffff16815260200160018201548152602001600282018054610b7b90613c94565b80601f0160208091040260200160405190810160405280929190818152602001828054610ba790613c94565b8015610bf45780601f10610bc957610100808354040283529160200191610bf4565b820191906000526020600020905b815481529060010190602001808311610bd757829003601f168201915b5050505050815260200160038201548152602001600482018054610c1790613c94565b80601f0160208091040260200160405190810160405280929190818152602001828054610c4390613c94565b8015610c905780601f10610c6557610100808354040283529160200191610c90565b820191906000526020600020905b815481529060010190602001808311610c7357829003601f168201915b50505050508152602001600582018054610ca990613c94565b80601f0160208091040260200160405190810160405280929190818152602001828054610cd590613c94565b8015610d225780601f10610cf757610100808354040283529160200191610d22565b820191906000526020600020905b815481529060010190602001808311610d0557829003601f168201915b505050505081526020016006820160009054906101000a900460ff161515151581525050828281518110610d5957610d58613de9565b5b60200260200101819052508080610d6f90613e47565b915050610adc565b508091505090565b610d90610d8a612576565b82612645565b610dcf576040517f08c379a0000000000000000000000000000000000000000000000000000000008152600401610dc690613f01565b60405180910390fd5b610dda8383836126da565b505050565b600080610dec6006612637565b90506000339050610dfd60066129d3565b6040518060e001604052808273ffffffffffffffffffffffffffffffffffffffff168152602001838152602001888152602001878152602001868152602001858152602001600115158152506008600084815260200190815260200160002060008201518160000160006101000a81548173ffffffffffffffffffffffffffffffffffffffff021916908373ffffffffffffffffffffffffffffffffffffffff160217905550602082015181600101556040820151816002019081610ec291906140cd565b50606082015181600301556080820151816004019081610ee291906140cd565b5060a0820151816005019081610ef891906140cd565b5060c08201518160060160006101000a81548160ff02191690831515021790555090505060086000838152602001908152602001600020600a60008481526020019081526020016000206000820160009054906101000a900473ffffffffffffffffffffffffffffffffffffffff168160000160006101000a81548173ffffffffffffffffffffffffffffffffffffffff021916908373ffffffffffffffffffffffffffffffffffffffff1602179055506001820154816001015560028201816002019081610fc791906141b5565b506003820154816003015560048201816004019081610fe691906141b5565b5060058201816005019081610ffb91906141b5565b506006820160009054906101000a900460ff168160060160006101000a81548160ff02191690831515021790555090505061103660076129d3565b600960008273ffffffffffffffffffffffffffffffffffffffff1673ffffffffffffffffffffffffffffffffffffffff1681526020019081526020016000208290806001815401808255809150506001900390600052602060002001600090919091909150558192505050949350505050565b600115156008600083815260200190815260200160002060060160009054906101000a900460ff16151514611113576040517f08c379a000000000000000000000000000000000000000000000000000000000815260040161110a9061430f565b60405180910390fd5b6008600082815260200190815260200160002060000160009054906101000a900473ffffffffffffffffffffffffffffffffffffffff1673ffffffffffffffffffffffffffffffffffffffff163373ffffffffffffffffffffffffffffffffffffffff16146111b7576040517f08c379a00000000000000000000000000000000000000000000000000000000081526004016111ae906143a1565b60405180910390fd5b6111c160076129e9565b600a6000828152602001908152602001600020600080820160006101000a81549073ffffffffffffffffffffffffffffffffffffffff0219169055600182016000905560028201600061121491906131ee565b600382016000905560048201600061122c91906131ee565b60058201600061123c91906131ee565b6006820160006101000a81549060ff0219169055505060006008600083815260200190815260200160002060060160006101000a81548160ff02191690831515021790555050565b61129f83838360405180602001604052806000815250612363565b505050565b606060006112b26006612637565b67ffffffffffffffff8111156112cb576112ca613858565b5b60405190808252806020026020018201604052801561130457816020015b6112f1613199565b8152602001906001900390816112e95790505b50905060005b6113146006612637565b8110156115a557600860008281526020019081526020016000206040518060e00160405290816000820160009054906101000a900473ffffffffffffffffffffffffffffffffffffffff1673ffffffffffffffffffffffffffffffffffffffff1673ffffffffffffffffffffffffffffffffffffffff168152602001600182015481526020016002820180546113a990613c94565b80601f01602080910402602001604051908101604052809291908181526020018280546113d590613c94565b80156114225780601f106113f757610100808354040283529160200191611422565b820191906000526020600020905b81548152906001019060200180831161140557829003601f168201915b505050505081526020016003820154815260200160048201805461144590613c94565b80601f016020809104026020016040519081016040528092919081815260200182805461147190613c94565b80156114be5780601f10611493576101008083540402835291602001916114be565b820191906000526020600020905b8154815290600101906020018083116114a157829003601f168201915b505050505081526020016005820180546114d790613c94565b80601f016020809104026020016040519081016040528092919081815260200182805461150390613c94565b80156115505780601f1061152557610100808354040283529160200191611550565b820191906000526020600020905b81548152906001019060200180831161153357829003601f168201915b505050505081526020016006820160009054906101000a900460ff16151515158152505082828151811061158757611586613de9565b5b6020026020010181905250808061159d90613e47565b91505061130a565b508091505090565b6000806115b983612a45565b9050600073ffffffffffffffffffffffffffffffffffffffff168173ffffffffffffffffffffffffffffffffffffffff160361162a576040517f08c379a00000000000000000000000000000000000000000000000000000000081526004016116219061440d565b60405180910390fd5b80915050919050565b6000600115156008600084815260200190815260200160002060060160009054906101000a900460ff1615151461169f576040517f08c379a000000000000000000000000000000000000000000000000000000000815260040161169690614479565b60405180910390fd5b3373ffffffffffffffffffffffffffffffffffffffff166008600084815260200190815260200160002060000160009054906101000a900473ffffffffffffffffffffffffffffffffffffffff1673ffffffffffffffffffffffffffffffffffffffff1603611743576040517f08c379a000000000000000000000000000000000000000000000000000000000815260040161173a9061450b565b60405180910390fd5b60086000838152602001908152602001600020600301543373ffffffffffffffffffffffffffffffffffffffff1631116117b2576040517f08c379a00000000000000000000000000000000000000000000000000000000081526004016117a990614577565b60405180910390fd5b6008600083815260200190815260200160002060000160009054906101000a900473ffffffffffffffffffffffffffffffffffffffff1673ffffffffffffffffffffffffffffffffffffffff166108fc349081150290604051600060405180830381858888f1935050505015801561182e573d6000803e3d6000fd5b5060006008600084815260200190815260200160002060060160006101000a81548160ff021916908315150217905550600960006008600085815260200190815260200160002060000160009054906101000a900473ffffffffffffffffffffffffffffffffffffffff1673ffffffffffffffffffffffffffffffffffffffff1673ffffffffffffffffffffffffffffffffffffffff16815260200190815260200160002060006118df919061322e565b600a6000838152602001908152602001600020600080820160006101000a81549073ffffffffffffffffffffffffffffffffffffffff0219169055600182016000905560028201600061193291906131ee565b600382016000905560048201600061194a91906131ee565b60058201600061195a91906131ee565b6006820160006101000a81549060ff0219169055505061197a60076129d3565b336008600084815260200190815260200160002060000160006101000a81548173ffffffffffffffffffffffffffffffffffffffff021916908373ffffffffffffffffffffffffffffffffffffffff160217905550600960006008600085815260200190815260200160002060000160009054906101000a900473ffffffffffffffffffffffffffffffffffffffff1673ffffffffffffffffffffffffffffffffffffffff1673ffffffffffffffffffffffffffffffffffffffff16815260200190815260200160002082908060018154018082558091505060019003906000526020600020016000909190919091505560019050919050565b60008073ffffffffffffffffffffffffffffffffffffffff168273ffffffffffffffffffffffffffffffffffffffff1603611ae4576040517f08c379a0000000000000000000000000000000000000000000000000000000008152600401611adb90614609565b60405180910390fd5b600360008373ffffffffffffffffffffffffffffffffffffffff1673ffffffffffffffffffffffffffffffffffffffff168152602001908152602001600020549050919050565b606060018054611b3a90613c94565b80601f0160208091040260200160405190810160405280929190818152602001828054611b6690613c94565b8015611bb35780601f10611b8857610100808354040283529160200191611bb3565b820191906000526020600020905b815481529060010190602001808311611b9657829003601f168201915b5050505050905090565b611bcf611bc8612576565b8383612a82565b5050565b600115156008600083815260200190815260200160002060060160009054906101000a900460ff16151503611c3d576040517f08c379a0000000000000000000000000000000000000000000000000000000008152600401611c3490614675565b60405180910390fd5b611c4760076129d3565b6040518060e001604052806008600084815260200190815260200160002060000160009054906101000a900473ffffffffffffffffffffffffffffffffffffffff1673ffffffffffffffffffffffffffffffffffffffff168152602001828152602001600860008481526020019081526020016000206002018054611ccb90613c94565b80601f0160208091040260200160405190810160405280929190818152602001828054611cf790613c94565b8015611d445780601f10611d1957610100808354040283529160200191611d44565b820191906000526020600020905b815481529060010190602001808311611d2757829003601f168201915b5050505050815260200160086000848152602001908152602001600020600301548152602001600860008481526020019081526020016000206004018054611d8b90613c94565b80601f0160208091040260200160405190810160405280929190818152602001828054611db790613c94565b8015611e045780601f10611dd957610100808354040283529160200191611e04565b820191906000526020600020905b815481529060010190602001808311611de757829003601f168201915b50505050508152602001600860008481526020019081526020016000206005018054611e2f90613c94565b80601f0160208091040260200160405190810160405280929190818152602001828054611e5b90613c94565b8015611ea85780601f10611e7d57610100808354040283529160200191611ea8565b820191906000526020600020905b815481529060010190602001808311611e8b57829003601f168201915b5050505050815260200160011515815250600a600083815260200190815260200160002060008201518160000160006101000a81548173ffffffffffffffffffffffffffffffffffffffff021916908373ffffffffffffffffffffffffffffffffffffffff160217905550602082015181600101556040820151816002019081611f3291906140cd565b50606082015181600301556080820151816004019081611f5291906140cd565b5060a0820151816005019081611f6891906140cd565b5060c08201518160060160006101000a81548160ff02191690831515021790555090505060016008600083815260200190815260200160002060060160006101000a81548160ff02191690831515021790555050565b606080600960003373ffffffffffffffffffffffffffffffffffffffff1673ffffffffffffffffffffffffffffffffffffffff16815260200190815260200160002080548060200260200160405190810160405280929190818152602001828054801561204a57602002820191906000526020600020905b815481526020019060010190808311612036575b505050505090506000815167ffffffffffffffff81111561206e5761206d613858565b5b6040519080825280602002602001820160405280156120a757816020015b612094613199565b81526020019060019003908161208c5790505b50905060005b825181101561235a57600860008483815181106120cd576120cc613de9565b5b602002602001015181526020019081526020016000206040518060e00160405290816000820160009054906101000a900473ffffffffffffffffffffffffffffffffffffffff1673ffffffffffffffffffffffffffffffffffffffff1673ffffffffffffffffffffffffffffffffffffffff1681526020016001820154815260200160028201805461215e90613c94565b80601f016020809104026020016040519081016040528092919081815260200182805461218a90613c94565b80156121d75780601f106121ac576101008083540402835291602001916121d7565b820191906000526020600020905b8154815290600101906020018083116121ba57829003601f168201915b50505050508152602001600382015481526020016004820180546121fa90613c94565b80601f016020809104026020016040519081016040528092919081815260200182805461222690613c94565b80156122735780601f1061224857610100808354040283529160200191612273565b820191906000526020600020905b81548152906001019060200180831161225657829003601f168201915b5050505050815260200160058201805461228c90613c94565b80601f01602080910402602001604051908101604052809291908181526020018280546122b890613c94565b80156123055780601f106122da57610100808354040283529160200191612305565b820191906000526020600020905b8154815290600101906020018083116122e857829003601f168201915b505050505081526020016006820160009054906101000a900460ff16151515158152505082828151811061233c5761233b613de9565b5b6020026020010181905250808061235290613e47565b9150506120ad565b50809250505090565b61237461236e612576565b83612645565b6123b3576040517f08c379a00000000000000000000000000000000000000000000000000000000081526004016123aa90613f01565b60405180910390fd5b6123bf84848484612bee565b50505050565b60606123d08261252b565b60006123da612c4a565b905060008151116123fa5760405180602001604052806000815250612425565b8061240484612c61565b6040516020016124159291906146d1565b6040516020818303038152906040525b915050919050565b6000600560008473ffffffffffffffffffffffffffffffffffffffff1673ffffffffffffffffffffffffffffffffffffffff16815260200190815260200160002060008373ffffffffffffffffffffffffffffffffffffffff1673ffffffffffffffffffffffffffffffffffffffff16815260200190815260200160002060009054906101000a900460ff16905092915050565b60007f01ffc9a7000000000000000000000000000000000000000000000000000000007bffffffffffffffffffffffffffffffffffffffffffffffffffffffff1916827bffffffffffffffffffffffffffffffffffffffffffffffffffffffff1916149050919050565b61253481612d2f565b612573576040517f08c379a000000000000000000000000000000000000000000000000000000000815260040161256a9061440d565b60405180910390fd5b50565b600033905090565b816004600083815260200190815260200160002060006101000a81548173ffffffffffffffffffffffffffffffffffffffff021916908373ffffffffffffffffffffffffffffffffffffffff160217905550808273ffffffffffffffffffffffffffffffffffffffff166125f1836115ad565b73ffffffffffffffffffffffffffffffffffffffff167f8c5be1e5ebec7d5bd14f71427d1e84f3dd0314c0f7b2291e5b200ac8c7c3b92560405160405180910390a45050565b600081600001549050919050565b600080612651836115ad565b90508073ffffffffffffffffffffffffffffffffffffffff168473ffffffffffffffffffffffffffffffffffffffff1614806126935750612692818561242d565b5b806126d157508373ffffffffffffffffffffffffffffffffffffffff166126b984610919565b73ffffffffffffffffffffffffffffffffffffffff16145b91505092915050565b8273ffffffffffffffffffffffffffffffffffffffff166126fa826115ad565b73ffffffffffffffffffffffffffffffffffffffff1614612750576040517f08c379a000000000000000000000000000000000000000000000000000000000815260040161274790614767565b60405180910390fd5b600073ffffffffffffffffffffffffffffffffffffffff168273ffffffffffffffffffffffffffffffffffffffff16036127bf576040517f08c379a00000000000000000000000000000000000000000000000000000000081526004016127b6906147f9565b60405180910390fd5b6127cc8383836001612d70565b8273ffffffffffffffffffffffffffffffffffffffff166127ec826115ad565b73ffffffffffffffffffffffffffffffffffffffff1614612842576040517f08c379a000000000000000000000000000000000000000000000000000000000815260040161283990614767565b60405180910390fd5b6004600082815260200190815260200160002060006101000a81549073ffffffffffffffffffffffffffffffffffffffff02191690556001600360008573ffffffffffffffffffffffffffffffffffffffff1673ffffffffffffffffffffffffffffffffffffffff168152602001908152602001600020600082825403925050819055506001600360008473ffffffffffffffffffffffffffffffffffffffff1673ffffffffffffffffffffffffffffffffffffffff16815260200190815260200160002060008282540192505081905550816002600083815260200190815260200160002060006101000a81548173ffffffffffffffffffffffffffffffffffffffff021916908373ffffffffffffffffffffffffffffffffffffffff160217905550808273ffffffffffffffffffffffffffffffffffffffff168473ffffffffffffffffffffffffffffffffffffffff167fddf252ad1be2c89b69c2b068fc378daa952ba7f163c4a11628f55a4df523b3ef60405160405180910390a46129ce8383836001612e96565b505050565b6001816000016000828254019250508190555050565b60008160000154905060008111612a35576040517f08c379a0000000000000000000000000000000000000000000000000000000008152600401612a2c90614865565b60405180910390fd5b6001810382600001819055505050565b60006002600083815260200190815260200160002060009054906101000a900473ffffffffffffffffffffffffffffffffffffffff169050919050565b8173ffffffffffffffffffffffffffffffffffffffff168373ffffffffffffffffffffffffffffffffffffffff1603612af0576040517f08c379a0000000000000000000000000000000000000000000000000000000008152600401612ae7906148d1565b60405180910390fd5b80600560008573ffffffffffffffffffffffffffffffffffffffff1673ffffffffffffffffffffffffffffffffffffffff16815260200190815260200160002060008473ffffffffffffffffffffffffffffffffffffffff1673ffffffffffffffffffffffffffffffffffffffff16815260200190815260200160002060006101000a81548160ff0219169083151502179055508173ffffffffffffffffffffffffffffffffffffffff168373ffffffffffffffffffffffffffffffffffffffff167f17307eab39ab6107e8899845ad3d59bd9653f200f220920489ca2b5937696c3183604051612be19190613320565b60405180910390a3505050565b612bf98484846126da565b612c0584848484612e9c565b612c44576040517f08c379a0000000000000000000000000000000000000000000000000000000008152600401612c3b90614963565b60405180910390fd5b50505050565b606060405180602001604052806000815250905090565b606060006001612c7084613023565b01905060008167ffffffffffffffff811115612c8f57612c8e613858565b5b6040519080825280601f01601f191660200182016040528015612cc15781602001600182028036833780820191505090505b509050600082602001820190505b600115612d24578080600190039150507f3031323334353637383961626364656600000000000000000000000000000000600a86061a8153600a8581612d1857612d17614983565b5b04945060008503612ccf575b819350505050919050565b60008073ffffffffffffffffffffffffffffffffffffffff16612d5183612a45565b73ffffffffffffffffffffffffffffffffffffffff1614159050919050565b6001811115612e9057600073ffffffffffffffffffffffffffffffffffffffff168473ffffffffffffffffffffffffffffffffffffffff1614612e045780600360008673ffffffffffffffffffffffffffffffffffffffff1673ffffffffffffffffffffffffffffffffffffffff1681526020019081526020016000206000828254612dfc91906149b2565b925050819055505b600073ffffffffffffffffffffffffffffffffffffffff168373ffffffffffffffffffffffffffffffffffffffff1614612e8f5780600360008573ffffffffffffffffffffffffffffffffffffffff1673ffffffffffffffffffffffffffffffffffffffff1681526020019081526020016000206000828254612e8791906149e6565b925050819055505b5b50505050565b50505050565b6000612ebd8473ffffffffffffffffffffffffffffffffffffffff16613176565b15613016578373ffffffffffffffffffffffffffffffffffffffff1663150b7a02612ee6612576565b8786866040518563ffffffff1660e01b8152600401612f089493929190614a6f565b6020604051808303816000875af1925050508015612f4457506040513d601f19601f82011682018060405250810190612f419190614ad0565b60015b612fc6573d8060008114612f74576040519150601f19603f3d011682016040523d82523d6000602084013e612f79565b606091505b506000815103612fbe576040517f08c379a0000000000000000000000000000000000000000000000000000000008152600401612fb590614963565b60405180910390fd5b805181602001fd5b63150b7a0260e01b7bffffffffffffffffffffffffffffffffffffffffffffffffffffffff1916817bffffffffffffffffffffffffffffffffffffffffffffffffffffffff19161491505061301b565b600190505b949350505050565b600080600090507a184f03e93ff9f4daa797ed6e38ed64bf6a1f0100000000000000008310613081577a184f03e93ff9f4daa797ed6e38ed64bf6a1f010000000000000000838161307757613076614983565b5b0492506040810190505b6d04ee2d6d415b85acef810000000083106130be576d04ee2d6d415b85acef810000000083816130b4576130b3614983565b5b0492506020810190505b662386f26fc1000083106130ed57662386f26fc1000083816130e3576130e2614983565b5b0492506010810190505b6305f5e1008310613116576305f5e100838161310c5761310b614983565b5b0492506008810190505b612710831061313b57612710838161313157613130614983565b5b0492506004810190505b6064831061315e576064838161315457613153614983565b5b0492506002810190505b600a831061316d576001810190505b80915050919050565b6000808273ffffffffffffffffffffffffffffffffffffffff163b119050919050565b6040518060e00160405280600073ffffffffffffffffffffffffffffffffffffffff16815260200160008152602001606081526020016000815260200160608152602001606081526020016000151581525090565b5080546131fa90613c94565b6000825580601f1061320c575061322b565b601f01602090049060005260206000209081019061322a919061324f565b5b50565b508054600082559060005260206000209081019061324c919061324f565b50565b5b80821115613268576000816000905550600101613250565b5090565b6000604051905090565b600080fd5b600080fd5b60007fffffffff0000000000000000000000000000000000000000000000000000000082169050919050565b6132b581613280565b81146132c057600080fd5b50565b6000813590506132d2816132ac565b92915050565b6000602082840312156132ee576132ed613276565b5b60006132fc848285016132c3565b91505092915050565b60008115159050919050565b61331a81613305565b82525050565b60006020820190506133356000830184613311565b92915050565b6000819050919050565b61334e8161333b565b811461335957600080fd5b50565b60008135905061336b81613345565b92915050565b60006020828403121561338757613386613276565b5b60006133958482850161335c565b91505092915050565b600073ffffffffffffffffffffffffffffffffffffffff82169050919050565b60006133c98261339e565b9050919050565b6133d9816133be565b82525050565b6133e88161333b565b82525050565b600081519050919050565b600082825260208201905092915050565b60005b8381101561342857808201518184015260208101905061340d565b60008484015250505050565b6000601f19601f8301169050919050565b6000613450826133ee565b61345a81856133f9565b935061346a81856020860161340a565b61347381613434565b840191505092915050565b61348781613305565b82525050565b600060e0830160008301516134a560008601826133d0565b5060208301516134b860208601826133df565b50604083015184820360408601526134d08282613445565b91505060608301516134e560608601826133df565b50608083015184820360808601526134fd8282613445565b91505060a083015184820360a08601526135178282613445565b91505060c083015161352c60c086018261347e565b508091505092915050565b60006020820190508181036000830152613551818461348d565b905092915050565b600082825260208201905092915050565b6000613575826133ee565b61357f8185613559565b935061358f81856020860161340a565b61359881613434565b840191505092915050565b600060208201905081810360008301526135bd818461356a565b905092915050565b60006135d08261339e565b9050919050565b6135e0816135c5565b82525050565b60006020820190506135fb60008301846135d7565b92915050565b61360a816135c5565b811461361557600080fd5b50565b60008135905061362781613601565b92915050565b6000806040838503121561364457613643613276565b5b600061365285828601613618565b92505060206136638582860161335c565b9150509250929050565b600081519050919050565b600082825260208201905092915050565b6000819050602082019050919050565b600060e0830160008301516136b160008601826133d0565b5060208301516136c460208601826133df565b50604083015184820360408601526136dc8282613445565b91505060608301516136f160608601826133df565b50608083015184820360808601526137098282613445565b91505060a083015184820360a08601526137238282613445565b91505060c083015161373860c086018261347e565b508091505092915050565b600061374f8383613699565b905092915050565b6000602082019050919050565b600061376f8261366d565b6137798185613678565b93508360208202850161378b85613689565b8060005b858110156137c757848403895281516137a88582613743565b94506137b383613757565b925060208a0199505060018101905061378f565b50829750879550505050505092915050565b600060208201905081810360008301526137f38184613764565b905092915050565b60008060006060848603121561381457613813613276565b5b600061382286828701613618565b935050602061383386828701613618565b92505060406138448682870161335c565b9150509250925092565b600080fd5b600080fd5b7f4e487b7100000000000000000000000000000000000000000000000000000000600052604160045260246000fd5b61389082613434565b810181811067ffffffffffffffff821117156138af576138ae613858565b5b80604052505050565b60006138c261326c565b90506138ce8282613887565b919050565b600067ffffffffffffffff8211156138ee576138ed613858565b5b6138f782613434565b9050602081019050919050565b82818337600083830152505050565b6000613926613921846138d3565b6138b8565b90508281526020810184848401111561394257613941613853565b5b61394d848285613904565b509392505050565b600082601f83011261396a5761396961384e565b5b813561397a848260208601613913565b91505092915050565b6000806000806080858703121561399d5761399c613276565b5b600085013567ffffffffffffffff8111156139bb576139ba61327b565b5b6139c787828801613955565b94505060206139d88782880161335c565b935050604085013567ffffffffffffffff8111156139f9576139f861327b565b5b613a0587828801613955565b925050606085013567ffffffffffffffff811115613a2657613a2561327b565b5b613a3287828801613955565b91505092959194509250565b613a478161333b565b82525050565b6000602082019050613a626000830184613a3e565b92915050565b600060208284031215613a7e57613a7d613276565b5b6000613a8c84828501613618565b91505092915050565b613a9e81613305565b8114613aa957600080fd5b50565b600081359050613abb81613a95565b92915050565b60008060408385031215613ad857613ad7613276565b5b6000613ae685828601613618565b9250506020613af785828601613aac565b9150509250929050565b600067ffffffffffffffff821115613b1c57613b1b613858565b5b613b2582613434565b9050602081019050919050565b6000613b45613b4084613b01565b6138b8565b905082815260208101848484011115613b6157613b60613853565b5b613b6c848285613904565b509392505050565b600082601f830112613b8957613b8861384e565b5b8135613b99848260208601613b32565b91505092915050565b60008060008060808587031215613bbc57613bbb613276565b5b6000613bca87828801613618565b9450506020613bdb87828801613618565b9350506040613bec8782880161335c565b925050606085013567ffffffffffffffff811115613c0d57613c0c61327b565b5b613c1987828801613b74565b91505092959194509250565b60008060408385031215613c3c57613c3b613276565b5b6000613c4a85828601613618565b9250506020613c5b85828601613618565b9150509250929050565b7f4e487b7100000000000000000000000000000000000000000000000000000000600052602260045260246000fd5b60006002820490506001821680613cac57607f821691505b602082108103613cbf57613cbe613c65565b5b50919050565b7f4552433732313a20617070726f76616c20746f2063757272656e74206f776e6560008201527f7200000000000000000000000000000000000000000000000000000000000000602082015250565b6000613d21602183613559565b9150613d2c82613cc5565b604082019050919050565b60006020820190508181036000830152613d5081613d14565b9050919050565b7f4552433732313a20617070726f76652063616c6c6572206973206e6f7420746f60008201527f6b656e206f776e6572206f7220617070726f76656420666f7220616c6c000000602082015250565b6000613db3603d83613559565b9150613dbe82613d57565b604082019050919050565b60006020820190508181036000830152613de281613da6565b9050919050565b7f4e487b7100000000000000000000000000000000000000000000000000000000600052603260045260246000fd5b7f4e487b7100000000000000000000000000000000000000000000000000000000600052601160045260246000fd5b6000613e528261333b565b91507fffffffffffffffffffffffffffffffffffffffffffffffffffffffffffffffff8203613e8457613e83613e18565b5b600182019050919050565b7f4552433732313a2063616c6c6572206973206e6f7420746f6b656e206f776e6560008201527f72206f7220617070726f76656400000000000000000000000000000000000000602082015250565b6000613eeb602d83613559565b9150613ef682613e8f565b604082019050919050565b60006020820190508181036000830152613f1a81613ede565b9050919050565b60008190508160005260206000209050919050565b60006020601f8301049050919050565b600082821b905092915050565b600060088302613f837fffffffffffffffffffffffffffffffffffffffffffffffffffffffffffffffff82613f46565b613f8d8683613f46565b95508019841693508086168417925050509392505050565b6000819050919050565b6000613fca613fc5613fc08461333b565b613fa5565b61333b565b9050919050565b6000819050919050565b613fe483613faf565b613ff8613ff082613fd1565b848454613f53565b825550505050565b600090565b61400d614000565b614018818484613fdb565b505050565b5b8181101561403c57614031600082614005565b60018101905061401e565b5050565b601f8211156140815761405281613f21565b61405b84613f36565b8101602085101561406a578190505b61407e61407685613f36565b83018261401d565b50505b505050565b600082821c905092915050565b60006140a460001984600802614086565b1980831691505092915050565b60006140bd8383614093565b9150826002028217905092915050565b6140d6826133ee565b67ffffffffffffffff8111156140ef576140ee613858565b5b6140f98254613c94565b614104828285614040565b600060209050601f8311600181146141375760008415614125578287015190505b61412f85826140b1565b865550614197565b601f19841661414586613f21565b60005b8281101561416d57848901518255600182019150602085019450602081019050614148565b8683101561418a5784890151614186601f891682614093565b8355505b6001600288020188555050505b505050505050565b6000815490506141ae81613c94565b9050919050565b8181036141c357505061429b565b6141cc8261419f565b67ffffffffffffffff8111156141e5576141e4613858565b5b6141ef8254613c94565b6141fa828285614040565b6000601f8311600181146142295760008415614217578287015490505b61422185826140b1565b865550614294565b601f19841661423787613f21565b965061424286613f21565b60005b8281101561426a57848901548255600182019150600185019450602081019050614245565b868310156142875784890154614283601f891682614093565b8355505b6001600288020188555050505b5050505050505b565b7f4c61206d61636368696e612073656c657a696f6e617461206e6f6e20696e207660008201527f656e646974610000000000000000000000000000000000000000000000000000602082015250565b60006142f9602683613559565b91506143048261429d565b604082019050919050565b60006020820190508181036000830152614328816142ec565b9050919050565b7f536f6c6f20692076656e6469746f726920706f73736f6e6f2063616e63656c6c60008201527f6172650000000000000000000000000000000000000000000000000000000000602082015250565b600061438b602383613559565b91506143968261432f565b604082019050919050565b600060208201905081810360008301526143ba8161437e565b9050919050565b7f4552433732313a20696e76616c696420746f6b656e2049440000000000000000600082015250565b60006143f7601883613559565b9150614402826143c1565b602082019050919050565b60006020820190508181036000830152614426816143ea565b9050919050565b7f4d61636368696e61206e6f6e20646973706f6e6962696c650000000000000000600082015250565b6000614463601883613559565b915061446e8261442d565b602082019050919050565b6000602082019050818103600083015261449281614456565b9050919050565b7f4e6f6e2070756f692061637175697374617265207175656c6c6f20636865206d60008201527f6574746920696e2076656e646974610000000000000000000000000000000000602082015250565b60006144f5602f83613559565b915061450082614499565b604082019050919050565b60006020820190508181036000830152614524816144e8565b9050919050565b7f4e6f6e2068616920736f6c64692073756666696369656e746900000000000000600082015250565b6000614561601983613559565b915061456c8261452b565b602082019050919050565b6000602082019050818103600083015261459081614554565b9050919050565b7f4552433732313a2061646472657373207a65726f206973206e6f74206120766160008201527f6c6964206f776e65720000000000000000000000000000000000000000000000602082015250565b60006145f3602983613559565b91506145fe82614597565b604082019050919050565b60006020820190508181036000830152614622816145e6565b9050919050565b7f4d61636368696e612067696120696e2076656e64697461000000000000000000600082015250565b600061465f601783613559565b915061466a82614629565b602082019050919050565b6000602082019050818103600083015261468e81614652565b9050919050565b600081905092915050565b60006146ab826133ee565b6146b58185614695565b93506146c581856020860161340a565b80840191505092915050565b60006146dd82856146a0565b91506146e982846146a0565b91508190509392505050565b7f4552433732313a207472616e736665722066726f6d20696e636f72726563742060008201527f6f776e6572000000000000000000000000000000000000000000000000000000602082015250565b6000614751602583613559565b915061475c826146f5565b604082019050919050565b6000602082019050818103600083015261478081614744565b9050919050565b7f4552433732313a207472616e7366657220746f20746865207a65726f2061646460008201527f7265737300000000000000000000000000000000000000000000000000000000602082015250565b60006147e3602483613559565b91506147ee82614787565b604082019050919050565b60006020820190508181036000830152614812816147d6565b9050919050565b7f436f756e7465723a2064656372656d656e74206f766572666c6f770000000000600082015250565b600061484f601b83613559565b915061485a82614819565b602082019050919050565b6000602082019050818103600083015261487e81614842565b9050919050565b7f4552433732313a20617070726f766520746f2063616c6c657200000000000000600082015250565b60006148bb601983613559565b91506148c682614885565b602082019050919050565b600060208201905081810360008301526148ea816148ae565b9050919050565b7f4552433732313a207472616e7366657220746f206e6f6e20455243373231526560008201527f63656976657220696d706c656d656e7465720000000000000000000000000000602082015250565b600061494d603283613559565b9150614958826148f1565b604082019050919050565b6000602082019050818103600083015261497c81614940565b9050919050565b7f4e487b7100000000000000000000000000000000000000000000000000000000600052601260045260246000fd5b60006149bd8261333b565b91506149c88361333b565b92508282039050818111156149e0576149df613e18565b5b92915050565b60006149f18261333b565b91506149fc8361333b565b9250828201905080821115614a1457614a13613e18565b5b92915050565b600081519050919050565b600082825260208201905092915050565b6000614a4182614a1a565b614a4b8185614a25565b9350614a5b81856020860161340a565b614a6481613434565b840191505092915050565b6000608082019050614a8460008301876135d7565b614a9160208301866135d7565b614a9e6040830185613a3e565b8181036060830152614ab08184614a36565b905095945050505050565b600081519050614aca816132ac565b92915050565b600060208284031215614ae657614ae5613276565b5b6000614af484828501614abb565b9150509291505056fea264697066735822122078c85edddca1d8e4fbbf3ec2b5b7ecb40af248729c5b12ae190fbe3e315a101064736f6c63430008110033",
  "immutableReferences": {},
  "source": "//Una licenza software su cui terremo il programma\r\n// SPDX-License-Identifier: MIT\r\n\r\npragma solidity ^0.8.11;\r\n\r\nimport \"@openzeppelin/contracts/token/ERC721/ERC721.sol\";\r\nimport \"@openzeppelin/contracts/utils/Counters.sol\";\r\n\r\ncontract Car is ERC721 {\r\n\r\n\r\n\r\n    constructor() ERC721(\"Car\", \"CAR\")  {\r\n    }\r\n\r\n    using Counters for Counters.Counter;\r\n\r\n    //Variabile che permette di gestire gli id delle car\r\n    Counters.Counter private carsIds;\r\n    Counters.Counter private counterNoBuy;\r\n    //per tenere traccia di tutte le info relative alle car\r\n    mapping (uint256 => CarInfo) cars;\r\n    //mapping di tutti i token posseduti da un indirizzo\r\n    mapping (address => uint256[]) ownedCars;\r\n    mapping (uint256 => CarInfo) noBuyCars;\r\n\r\n\r\n    struct CarInfo{\r\n        address payable owner;\r\n        //Identifiativo della macchina\r\n\r\n        uint256 carId;\r\n        string name;\r\n        //Prezzo auto\r\n        uint256 price;\r\n        //Descrizione\r\n        string description;\r\n        //Immagine\r\n        string image;\r\n        //Stato della macchina (true la macchina  in vendita)\r\n        bool used;\r\n    }\r\n\r\n    function addCar(string memory name, uint price, string memory description,  string memory image) public returns (uint256) {\r\n\r\n        uint256 newCarId = carsIds.current();\r\n        address payable owner = payable(msg.sender);\r\n\r\n        //Incremento l'id del biglietto\r\n        carsIds.increment();\r\n        //true la macchina  in vendita\r\n\r\n        cars[newCarId] = CarInfo(owner, newCarId, name, price, description, image, true);\r\n\r\n        noBuyCars[newCarId]=cars[newCarId];\r\n        counterNoBuy.increment();\r\n        //Lo inserisco tra quelli posseduti da un indirizzo\r\n        ownedCars[owner].push(newCarId);\r\n\r\n        return newCarId;\r\n\r\n    }\r\n\r\n    function sellMyCar(uint256 carId) public {\r\n\r\n        require(cars[carId].used != true, \"Macchina gia in vendita\");\r\n        counterNoBuy.increment();\r\n\r\n        noBuyCars[carId] = CarInfo(cars[carId].owner, carId, cars[carId].name, cars[carId].price, cars[carId].description, cars[carId].image, true);\r\n        cars[carId].used=true;\r\n\r\n    }\r\n\r\n\r\n    function buyCar(uint256 carId) public payable returns(bool){\r\n        require(cars[carId].used == true, \"Macchina non disponibile\");\r\n        require(cars[carId].owner != msg.sender, \"Non puoi acquistare quello che metti in vendita\");\r\n        require(msg.sender.balance > cars[carId].price, \"Non hai soldi sufficienti\");\r\n\r\n        //invio i soldi\r\n        cars[carId].owner.transfer(msg.value);\r\n        cars[carId].used = false;\r\n        //elimino dalla lista delle macchine del proprietario precedente\r\n        delete ownedCars[cars[carId].owner];\r\n        //adesso non  pi vendibile\r\n        delete noBuyCars[carId];\r\n        //incremento il contatore degli annunci\r\n        counterNoBuy.increment();\r\n        //metto l'indirizzo nuovo alla macchina\r\n        cars[carId].owner = payable(msg.sender);\r\n\r\n        //metto nella lista della macchina del proprietario\r\n        ownedCars[cars[carId].owner].push(carId);\r\n\r\n\r\n\r\n        return true;\r\n    }\r\n\r\n\r\n    function cancel(uint256 carId) public {\r\n\r\n        require(cars[carId].used == true, \"La macchina selezionata non in vendita\");\r\n        require(msg.sender == cars[carId].owner, \"Solo i venditori possono cancellare\");\r\n        counterNoBuy.decrement();\r\n        delete noBuyCars[carId];\r\n        cars[carId].used = false;\r\n\r\n    }\r\n\r\n    function  getCarsList() public view returns (CarInfo[] memory){\r\n        CarInfo[] memory toReturnCars = new CarInfo[](carsIds.current());\r\n        for(uint i = 0; i < carsIds.current(); i++) {\r\n                toReturnCars[i] = cars[i];\r\n        }\r\n        return toReturnCars;\r\n    }\r\n\r\n\r\n    function  getNoBuyCarsList() public view returns (CarInfo[] memory){\r\n        CarInfo[] memory toReturnCars = new CarInfo[](counterNoBuy.current());\r\n        for(uint i = 0; i < counterNoBuy.current(); i++) {\r\n                toReturnCars[i] = noBuyCars[i];\r\n        }\r\n        return toReturnCars;\r\n    }\r\n\r\n\r\n    function getCarsListByOwner() public view returns(CarInfo[] memory){\r\n        uint256[] memory allCarsId;\r\n\r\n        allCarsId = ownedCars[msg.sender];\r\n\r\n        CarInfo[] memory toReturnCars = new CarInfo[](allCarsId.length);\r\n\r\n        for(uint i = 0; i < allCarsId.length; i++) {\r\n            toReturnCars[i]  = cars[allCarsId[i]];\r\n        }\r\n\r\n        return toReturnCars;\r\n    }\r\n\r\n    function getACarById(uint carId) public view returns (CarInfo memory){\r\n\r\n        return cars[carId];\r\n\r\n    }\r\n\r\n\r\n\r\n\r\n}\r\n\r\n\r\n\r\n\r\n\r\n\r\n\r\n",
  "sourcePath": "C:\\Users\\lucia\\OneDrive\\Desktop\\CarVint\\contracts\\Car.sol",
  "compiler": {
    "name": "solc",
    "version": "0.8.17+commit.8df45f5f.Emscripten.clang"
  },
  "schemaVersion": "3.4.4",
  "updatedAt": "2023-02-27T10:45:42.059Z",
  "networkType": "ethereum",
  "devdoc": {
    "kind": "dev",
    "methods": {
      "approve(address,uint256)": {
        "details": "See {IERC721-approve}."
      },
      "balanceOf(address)": {
        "details": "See {IERC721-balanceOf}."
      },
      "getApproved(uint256)": {
        "details": "See {IERC721-getApproved}."
      },
      "isApprovedForAll(address,address)": {
        "details": "See {IERC721-isApprovedForAll}."
      },
      "name()": {
        "details": "See {IERC721Metadata-name}."
      },
      "ownerOf(uint256)": {
        "details": "See {IERC721-ownerOf}."
      },
      "safeTransferFrom(address,address,uint256)": {
        "details": "See {IERC721-safeTransferFrom}."
      },
      "safeTransferFrom(address,address,uint256,bytes)": {
        "details": "See {IERC721-safeTransferFrom}."
      },
      "setApprovalForAll(address,bool)": {
        "details": "See {IERC721-setApprovalForAll}."
      },
      "supportsInterface(bytes4)": {
        "details": "See {IERC165-supportsInterface}."
      },
      "symbol()": {
        "details": "See {IERC721Metadata-symbol}."
      },
      "tokenURI(uint256)": {
        "details": "See {IERC721Metadata-tokenURI}."
      },
      "transferFrom(address,address,uint256)": {
        "details": "See {IERC721-transferFrom}."
      }
    },
    "version": 1
  },
  "userdoc": {
    "kind": "user",
    "methods": {},
    "version": 1
  }
}